{
  "_format": "hh-sol-artifact-1",
  "contractName": "Web3DMarketplace",
  "sourceName": "contracts/Web3DMarketplace.sol",
  "abi": [
    {
      "inputs": [],
      "stateMutability": "nonpayable",
      "type": "constructor"
    },
    {
      "anonymous": false,
      "inputs": [
        {
          "indexed": true,
          "internalType": "address",
          "name": "account",
          "type": "address"
        },
        {
          "indexed": true,
          "internalType": "address",
          "name": "operator",
          "type": "address"
        },
        {
          "indexed": false,
          "internalType": "bool",
          "name": "approved",
          "type": "bool"
        }
      ],
      "name": "ApprovalForAll",
      "type": "event"
    },
    {
      "anonymous": false,
      "inputs": [
        {
          "indexed": true,
          "internalType": "address",
          "name": "operator",
          "type": "address"
        },
        {
          "indexed": true,
          "internalType": "address",
          "name": "from",
          "type": "address"
        },
        {
          "indexed": true,
          "internalType": "address",
          "name": "to",
          "type": "address"
        },
        {
          "indexed": false,
          "internalType": "uint256[]",
          "name": "ids",
          "type": "uint256[]"
        },
        {
          "indexed": false,
          "internalType": "uint256[]",
          "name": "values",
          "type": "uint256[]"
        }
      ],
      "name": "TransferBatch",
      "type": "event"
    },
    {
      "anonymous": false,
      "inputs": [
        {
          "indexed": true,
          "internalType": "address",
          "name": "operator",
          "type": "address"
        },
        {
          "indexed": true,
          "internalType": "address",
          "name": "from",
          "type": "address"
        },
        {
          "indexed": true,
          "internalType": "address",
          "name": "to",
          "type": "address"
        },
        {
          "indexed": false,
          "internalType": "uint256",
          "name": "id",
          "type": "uint256"
        },
        {
          "indexed": false,
          "internalType": "uint256",
          "name": "value",
          "type": "uint256"
        }
      ],
      "name": "TransferSingle",
      "type": "event"
    },
    {
      "anonymous": false,
      "inputs": [
        {
          "indexed": false,
          "internalType": "string",
          "name": "value",
          "type": "string"
        },
        {
          "indexed": true,
          "internalType": "uint256",
          "name": "id",
          "type": "uint256"
        }
      ],
      "name": "URI",
      "type": "event"
    },
    {
      "anonymous": false,
      "inputs": [
        {
          "indexed": false,
          "internalType": "uint256",
          "name": "tokenID",
          "type": "uint256"
        },
        {
          "indexed": false,
          "internalType": "address",
          "name": "buyer",
          "type": "address"
        }
      ],
      "name": "newAccess",
      "type": "event"
    },
    {
      "anonymous": false,
      "inputs": [
        {
          "indexed": false,
          "internalType": "uint256",
          "name": "tokenID",
          "type": "uint256"
        },
        {
          "indexed": false,
          "internalType": "address",
          "name": "owner",
          "type": "address"
        },
        {
          "indexed": false,
          "internalType": "string",
          "name": "cid",
          "type": "string"
        },
        {
          "indexed": false,
          "internalType": "uint256",
          "name": "cost",
          "type": "uint256"
        }
      ],
      "name": "newProject",
      "type": "event"
    },
    {
      "inputs": [
        {
          "internalType": "uint256",
          "name": "",
          "type": "uint256"
        }
      ],
      "name": "Projects",
      "outputs": [
        {
          "internalType": "uint256",
          "name": "tokenID",
          "type": "uint256"
        },
        {
          "internalType": "address",
          "name": "owner",
          "type": "address"
        },
        {
          "internalType": "string",
          "name": "cid",
          "type": "string"
        },
        {
          "internalType": "uint256",
          "name": "cost",
          "type": "uint256"
        }
      ],
      "stateMutability": "view",
      "type": "function"
    },
    {
      "inputs": [
        {
          "internalType": "address",
          "name": "account",
          "type": "address"
        },
        {
          "internalType": "uint256",
          "name": "id",
          "type": "uint256"
        }
      ],
      "name": "balanceOf",
      "outputs": [
        {
          "internalType": "uint256",
          "name": "",
          "type": "uint256"
        }
      ],
      "stateMutability": "view",
      "type": "function"
    },
    {
      "inputs": [
        {
          "internalType": "address[]",
          "name": "accounts",
          "type": "address[]"
        },
        {
          "internalType": "uint256[]",
          "name": "ids",
          "type": "uint256[]"
        }
      ],
      "name": "balanceOfBatch",
      "outputs": [
        {
          "internalType": "uint256[]",
          "name": "",
          "type": "uint256[]"
        }
      ],
      "stateMutability": "view",
      "type": "function"
    },
    {
      "inputs": [
        {
          "internalType": "address",
          "name": "account",
          "type": "address"
        },
        {
          "internalType": "address",
          "name": "operator",
          "type": "address"
        }
      ],
      "name": "isApprovedForAll",
      "outputs": [
        {
          "internalType": "bool",
          "name": "",
          "type": "bool"
        }
      ],
      "stateMutability": "view",
      "type": "function"
    },
    {
      "inputs": [
        {
          "internalType": "uint256",
          "name": "tokenID",
          "type": "uint256"
        }
      ],
      "name": "mintAccess",
      "outputs": [],
      "stateMutability": "payable",
      "type": "function"
    },
    {
      "inputs": [
        {
          "internalType": "uint256",
          "name": "tokenID",
          "type": "uint256"
        },
        {
          "internalType": "string",
          "name": "cid",
          "type": "string"
        },
        {
          "internalType": "uint256",
          "name": "cost",
          "type": "uint256"
        }
      ],
      "name": "mintProject",
      "outputs": [],
      "stateMutability": "nonpayable",
      "type": "function"
    },
    {
      "inputs": [
        {
          "internalType": "address",
          "name": "from",
          "type": "address"
        },
        {
          "internalType": "address",
          "name": "to",
          "type": "address"
        },
        {
          "internalType": "uint256[]",
          "name": "ids",
          "type": "uint256[]"
        },
        {
          "internalType": "uint256[]",
          "name": "amounts",
          "type": "uint256[]"
        },
        {
          "internalType": "bytes",
          "name": "data",
          "type": "bytes"
        }
      ],
      "name": "safeBatchTransferFrom",
      "outputs": [],
      "stateMutability": "nonpayable",
      "type": "function"
    },
    {
      "inputs": [
        {
          "internalType": "address",
          "name": "from",
          "type": "address"
        },
        {
          "internalType": "address",
          "name": "to",
          "type": "address"
        },
        {
          "internalType": "uint256",
          "name": "id",
          "type": "uint256"
        },
        {
          "internalType": "uint256",
          "name": "amount",
          "type": "uint256"
        },
        {
          "internalType": "bytes",
          "name": "data",
          "type": "bytes"
        }
      ],
      "name": "safeTransferFrom",
      "outputs": [],
      "stateMutability": "nonpayable",
      "type": "function"
    },
    {
      "inputs": [
        {
          "internalType": "address",
          "name": "operator",
          "type": "address"
        },
        {
          "internalType": "bool",
          "name": "approved",
          "type": "bool"
        }
      ],
      "name": "setApprovalForAll",
      "outputs": [],
      "stateMutability": "nonpayable",
      "type": "function"
    },
    {
      "inputs": [
        {
          "internalType": "bytes4",
          "name": "interfaceId",
          "type": "bytes4"
        }
      ],
      "name": "supportsInterface",
      "outputs": [
        {
          "internalType": "bool",
          "name": "",
          "type": "bool"
        }
      ],
      "stateMutability": "view",
      "type": "function"
    },
    {
      "inputs": [
        {
          "internalType": "uint256",
          "name": "",
          "type": "uint256"
        }
      ],
      "name": "uri",
      "outputs": [
        {
          "internalType": "string",
          "name": "",
          "type": "string"
        }
      ],
      "stateMutability": "view",
      "type": "function"
    }
  ],
  "bytecode": "0x60806040523480156200001157600080fd5b506040518060200160405280600081525062000033816200007b60201b60201c565b5033600360006101000a81548173ffffffffffffffffffffffffffffffffffffffff021916908373ffffffffffffffffffffffffffffffffffffffff160217905550620001ac565b80600290805190602001906200009392919062000097565b5050565b828054620000a59062000176565b90600052602060002090601f016020900481019282620000c9576000855562000115565b82601f10620000e457805160ff191683800117855562000115565b8280016001018555821562000115579182015b8281111562000114578251825591602001919060010190620000f7565b5b50905062000124919062000128565b5090565b5b808211156200014357600081600090555060010162000129565b5090565b7f4e487b7100000000000000000000000000000000000000000000000000000000600052602260045260246000fd5b600060028204905060018216806200018f57607f821691505b60208210811415620001a657620001a562000147565b5b50919050565b612fd280620001bc6000396000f3fe60806040526004361061009b5760003560e01c80634e1273f4116100645780634e1273f4146101c05780635ede8dcb146101fd578063a22cb46514610219578063e985e9c514610242578063eb3b380d1461027f578063f242432a146102a85761009b565b8062fdd58e146100a057806301ffc9a7146100dd5780630e89341c1461011a57806321b2416c146101575780632eb2c2d614610197575b600080fd5b3480156100ac57600080fd5b506100c760048036038101906100c29190611b2f565b6102d1565b6040516100d49190611b7e565b60405180910390f35b3480156100e957600080fd5b5061010460048036038101906100ff9190611bf1565b61039a565b6040516101119190611c39565b60405180910390f35b34801561012657600080fd5b50610141600480360381019061013c9190611c54565b61047c565b60405161014e9190611d1a565b60405180910390f35b34801561016357600080fd5b5061017e60048036038101906101799190611c54565b610510565b60405161018e9493929190611d4b565b60405180910390f35b3480156101a357600080fd5b506101be60048036038101906101b99190611f94565b6105e8565b005b3480156101cc57600080fd5b506101e760048036038101906101e29190612126565b610689565b6040516101f4919061225c565b60405180910390f35b61021760048036038101906102129190611c54565b6107a2565b005b34801561022557600080fd5b50610240600480360381019061023b91906122aa565b61089b565b005b34801561024e57600080fd5b50610269600480360381019061026491906122ea565b6108b1565b6040516102769190611c39565b60405180910390f35b34801561028b57600080fd5b506102a660048036038101906102a19190612385565b610945565b005b3480156102b457600080fd5b506102cf60048036038101906102ca91906123f9565b610b7a565b005b60008073ffffffffffffffffffffffffffffffffffffffff168373ffffffffffffffffffffffffffffffffffffffff161415610342576040517f08c379a000000000000000000000000000000000000000000000000000000000815260040161033990612502565b60405180910390fd5b60008083815260200190815260200160002060008473ffffffffffffffffffffffffffffffffffffffff1673ffffffffffffffffffffffffffffffffffffffff16815260200190815260200160002054905092915050565b60007fd9b67a26000000000000000000000000000000000000000000000000000000007bffffffffffffffffffffffffffffffffffffffffffffffffffffffff1916827bffffffffffffffffffffffffffffffffffffffffffffffffffffffff1916148061046557507f0e89341c000000000000000000000000000000000000000000000000000000007bffffffffffffffffffffffffffffffffffffffffffffffffffffffff1916827bffffffffffffffffffffffffffffffffffffffffffffffffffffffff1916145b80610475575061047482610c1b565b5b9050919050565b60606002805461048b90612551565b80601f01602080910402602001604051908101604052809291908181526020018280546104b790612551565b80156105045780601f106104d957610100808354040283529160200191610504565b820191906000526020600020905b8154815290600101906020018083116104e757829003601f168201915b50505050509050919050565b60046020528060005260406000206000915090508060000154908060010160009054906101000a900473ffffffffffffffffffffffffffffffffffffffff169080600201805461055f90612551565b80601f016020809104026020016040519081016040528092919081815260200182805461058b90612551565b80156105d85780601f106105ad576101008083540402835291602001916105d8565b820191906000526020600020905b8154815290600101906020018083116105bb57829003601f168201915b5050505050908060030154905084565b6105f0610c85565b73ffffffffffffffffffffffffffffffffffffffff168573ffffffffffffffffffffffffffffffffffffffff161480610636575061063585610630610c85565b6108b1565b5b610675576040517f08c379a000000000000000000000000000000000000000000000000000000000815260040161066c906125f5565b60405180910390fd5b6106828585858585610c8d565b5050505050565b606081518351146106cf576040517f08c379a00000000000000000000000000000000000000000000000000000000081526004016106c690612687565b60405180910390fd5b6000835167ffffffffffffffff8111156106ec576106eb611d9c565b5b60405190808252806020026020018201604052801561071a5781602001602082028036833780820191505090505b50905060005b84518110156107975761076785828151811061073f5761073e6126a7565b5b602002602001015185838151811061075a576107596126a7565b5b60200260200101516102d1565b82828151811061077a576107796126a7565b5b6020026020010181815250508061079090612705565b9050610720565b508091505092915050565b346004600083815260200190815260200160002060030154146107fa576040517f08c379a00000000000000000000000000000000000000000000000000000000081526004016107f19061279a565b60405180910390fd5b61085f600360009054906101000a900473ffffffffffffffffffffffffffffffffffffffff16338360016040518060400160405280600381526020017f3078300000000000000000000000000000000000000000000000000000000000815250610faf565b7f08f26e47f1e020eb0841e7bd0952fe1f2f053468cd75648947b238961d94e10881336040516108909291906127ba565b60405180910390a150565b6108ad6108a6610c85565b838361124b565b5050565b6000600160008473ffffffffffffffffffffffffffffffffffffffff1673ffffffffffffffffffffffffffffffffffffffff16815260200190815260200160002060008373ffffffffffffffffffffffffffffffffffffffff1673ffffffffffffffffffffffffffffffffffffffff16815260200190815260200160002060009054906101000a900460ff16905092915050565b600073ffffffffffffffffffffffffffffffffffffffff166004600086815260200190815260200160002060010160009054906101000a900473ffffffffffffffffffffffffffffffffffffffff1673ffffffffffffffffffffffffffffffffffffffff16146109ea576040517f08c379a00000000000000000000000000000000000000000000000000000000081526004016109e19061282f565b60405180910390fd5b60405180608001604052808581526020013373ffffffffffffffffffffffffffffffffffffffff16815260200184848080601f016020809104026020016040519081016040528093929190818152602001838380828437600081840152601f19601f82011690508083019250505050505050815260200182815250600460008681526020019081526020016000206000820151816000015560208201518160010160006101000a81548173ffffffffffffffffffffffffffffffffffffffff021916908373ffffffffffffffffffffffffffffffffffffffff1602179055506040820151816002019080519060200190610ae59291906119e4565b5060608201518160030155905050610b35600360009054906101000a900473ffffffffffffffffffffffffffffffffffffffff16856402540be400604051806020016040528060008152506113b8565b7fa11cadfac52ccf2848ce075c1cc7d27606b66d7a1994c820b9f0b8e1edf239598433858585604051610b6c95949392919061287c565b60405180910390a150505050565b610b82610c85565b73ffffffffffffffffffffffffffffffffffffffff168573ffffffffffffffffffffffffffffffffffffffff161480610bc85750610bc785610bc2610c85565b6108b1565b5b610c07576040517f08c379a0000000000000000000000000000000000000000000000000000000008152600401610bfe906125f5565b60405180910390fd5b610c148585858585610faf565b5050505050565b60007f01ffc9a7000000000000000000000000000000000000000000000000000000007bffffffffffffffffffffffffffffffffffffffffffffffffffffffff1916827bffffffffffffffffffffffffffffffffffffffffffffffffffffffff1916149050919050565b600033905090565b8151835114610cd1576040517f08c379a0000000000000000000000000000000000000000000000000000000008152600401610cc89061293c565b60405180910390fd5b600073ffffffffffffffffffffffffffffffffffffffff168473ffffffffffffffffffffffffffffffffffffffff161415610d41576040517f08c379a0000000000000000000000000000000000000000000000000000000008152600401610d38906129ce565b60405180910390fd5b6000610d4b610c85565b9050610d5b818787878787611569565b60005b8451811015610f0c576000858281518110610d7c57610d7b6126a7565b5b602002602001015190506000858381518110610d9b57610d9a6126a7565b5b60200260200101519050600080600084815260200190815260200160002060008b73ffffffffffffffffffffffffffffffffffffffff1673ffffffffffffffffffffffffffffffffffffffff16815260200190815260200160002054905081811015610e3c576040517f08c379a0000000000000000000000000000000000000000000000000000000008152600401610e3390612a60565b60405180910390fd5b81810360008085815260200190815260200160002060008c73ffffffffffffffffffffffffffffffffffffffff1673ffffffffffffffffffffffffffffffffffffffff168152602001908152602001600020819055508160008085815260200190815260200160002060008b73ffffffffffffffffffffffffffffffffffffffff1673ffffffffffffffffffffffffffffffffffffffff1681526020019081526020016000206000828254610ef19190612a80565b9250508190555050505080610f0590612705565b9050610d5e565b508473ffffffffffffffffffffffffffffffffffffffff168673ffffffffffffffffffffffffffffffffffffffff168273ffffffffffffffffffffffffffffffffffffffff167f4a39dc06d4c0dbc64b70af90fd698a233a518aa5d07e595d983b8c0526c8f7fb8787604051610f83929190612ad6565b60405180910390a4610f99818787878787611571565b610fa7818787878787611579565b505050505050565b600073ffffffffffffffffffffffffffffffffffffffff168473ffffffffffffffffffffffffffffffffffffffff16141561101f576040517f08c379a0000000000000000000000000000000000000000000000000000000008152600401611016906129ce565b60405180910390fd5b6000611029610c85565b9050600061103685611760565b9050600061104385611760565b9050611053838989858589611569565b600080600088815260200190815260200160002060008a73ffffffffffffffffffffffffffffffffffffffff1673ffffffffffffffffffffffffffffffffffffffff168152602001908152602001600020549050858110156110ea576040517f08c379a00000000000000000000000000000000000000000000000000000000081526004016110e190612a60565b60405180910390fd5b85810360008089815260200190815260200160002060008b73ffffffffffffffffffffffffffffffffffffffff1673ffffffffffffffffffffffffffffffffffffffff168152602001908152602001600020819055508560008089815260200190815260200160002060008a73ffffffffffffffffffffffffffffffffffffffff1673ffffffffffffffffffffffffffffffffffffffff168152602001908152602001600020600082825461119f9190612a80565b925050819055508773ffffffffffffffffffffffffffffffffffffffff168973ffffffffffffffffffffffffffffffffffffffff168573ffffffffffffffffffffffffffffffffffffffff167fc3d58168c5ae7397731d063d5bbf3d657854427343f4c083240f7aacaa2d0f628a8a60405161121c929190612b0d565b60405180910390a4611232848a8a86868a611571565b611240848a8a8a8a8a6117da565b505050505050505050565b8173ffffffffffffffffffffffffffffffffffffffff168373ffffffffffffffffffffffffffffffffffffffff1614156112ba576040517f08c379a00000000000000000000000000000000000000000000000000000000081526004016112b190612ba8565b60405180910390fd5b80600160008573ffffffffffffffffffffffffffffffffffffffff1673ffffffffffffffffffffffffffffffffffffffff16815260200190815260200160002060008473ffffffffffffffffffffffffffffffffffffffff1673ffffffffffffffffffffffffffffffffffffffff16815260200190815260200160002060006101000a81548160ff0219169083151502179055508173ffffffffffffffffffffffffffffffffffffffff168373ffffffffffffffffffffffffffffffffffffffff167f17307eab39ab6107e8899845ad3d59bd9653f200f220920489ca2b5937696c31836040516113ab9190611c39565b60405180910390a3505050565b600073ffffffffffffffffffffffffffffffffffffffff168473ffffffffffffffffffffffffffffffffffffffff161415611428576040517f08c379a000000000000000000000000000000000000000000000000000000000815260040161141f90612c3a565b60405180910390fd5b6000611432610c85565b9050600061143f85611760565b9050600061144c85611760565b905061145d83600089858589611569565b8460008088815260200190815260200160002060008973ffffffffffffffffffffffffffffffffffffffff1673ffffffffffffffffffffffffffffffffffffffff16815260200190815260200160002060008282546114bc9190612a80565b925050819055508673ffffffffffffffffffffffffffffffffffffffff16600073ffffffffffffffffffffffffffffffffffffffff168473ffffffffffffffffffffffffffffffffffffffff167fc3d58168c5ae7397731d063d5bbf3d657854427343f4c083240f7aacaa2d0f62898960405161153a929190612b0d565b60405180910390a461155183600089858589611571565b611560836000898989896117da565b50505050505050565b505050505050565b505050505050565b6115988473ffffffffffffffffffffffffffffffffffffffff166119c1565b15611758578373ffffffffffffffffffffffffffffffffffffffff1663bc197c8187878686866040518663ffffffff1660e01b81526004016115de959493929190612caf565b602060405180830381600087803b1580156115f857600080fd5b505af192505050801561162957506040513d601f19601f820116820180604052508101906116269190612d2c565b60015b6116cf57611635612d66565b806308c379a01415611692575061164a612d88565b806116555750611694565b806040517f08c379a00000000000000000000000000000000000000000000000000000000081526004016116899190611d1a565b60405180910390fd5b505b6040517f08c379a00000000000000000000000000000000000000000000000000000000081526004016116c690612e90565b60405180910390fd5b63bc197c8160e01b7bffffffffffffffffffffffffffffffffffffffffffffffffffffffff1916817bffffffffffffffffffffffffffffffffffffffffffffffffffffffff191614611756576040517f08c379a000000000000000000000000000000000000000000000000000000000815260040161174d90612f22565b60405180910390fd5b505b505050505050565b60606000600167ffffffffffffffff81111561177f5761177e611d9c565b5b6040519080825280602002602001820160405280156117ad5781602001602082028036833780820191505090505b50905082816000815181106117c5576117c46126a7565b5b60200260200101818152505080915050919050565b6117f98473ffffffffffffffffffffffffffffffffffffffff166119c1565b156119b9578373ffffffffffffffffffffffffffffffffffffffff1663f23a6e6187878686866040518663ffffffff1660e01b815260040161183f959493929190612f42565b602060405180830381600087803b15801561185957600080fd5b505af192505050801561188a57506040513d601f19601f820116820180604052508101906118879190612d2c565b60015b61193057611896612d66565b806308c379a014156118f357506118ab612d88565b806118b657506118f5565b806040517f08c379a00000000000000000000000000000000000000000000000000000000081526004016118ea9190611d1a565b60405180910390fd5b505b6040517f08c379a000000000000000000000000000000000000000000000000000000000815260040161192790612e90565b60405180910390fd5b63f23a6e6160e01b7bffffffffffffffffffffffffffffffffffffffffffffffffffffffff1916817bffffffffffffffffffffffffffffffffffffffffffffffffffffffff1916146119b7576040517f08c379a00000000000000000000000000000000000000000000000000000000081526004016119ae90612f22565b60405180910390fd5b505b505050505050565b6000808273ffffffffffffffffffffffffffffffffffffffff163b119050919050565b8280546119f090612551565b90600052602060002090601f016020900481019282611a125760008555611a59565b82601f10611a2b57805160ff1916838001178555611a59565b82800160010185558215611a59579182015b82811115611a58578251825591602001919060010190611a3d565b5b509050611a669190611a6a565b5090565b5b80821115611a83576000816000905550600101611a6b565b5090565b6000604051905090565b600080fd5b600080fd5b600073ffffffffffffffffffffffffffffffffffffffff82169050919050565b6000611ac682611a9b565b9050919050565b611ad681611abb565b8114611ae157600080fd5b50565b600081359050611af381611acd565b92915050565b6000819050919050565b611b0c81611af9565b8114611b1757600080fd5b50565b600081359050611b2981611b03565b92915050565b60008060408385031215611b4657611b45611a91565b5b6000611b5485828601611ae4565b9250506020611b6585828601611b1a565b9150509250929050565b611b7881611af9565b82525050565b6000602082019050611b936000830184611b6f565b92915050565b60007fffffffff0000000000000000000000000000000000000000000000000000000082169050919050565b611bce81611b99565b8114611bd957600080fd5b50565b600081359050611beb81611bc5565b92915050565b600060208284031215611c0757611c06611a91565b5b6000611c1584828501611bdc565b91505092915050565b60008115159050919050565b611c3381611c1e565b82525050565b6000602082019050611c4e6000830184611c2a565b92915050565b600060208284031215611c6a57611c69611a91565b5b6000611c7884828501611b1a565b91505092915050565b600081519050919050565b600082825260208201905092915050565b60005b83811015611cbb578082015181840152602081019050611ca0565b83811115611cca576000848401525b50505050565b6000601f19601f8301169050919050565b6000611cec82611c81565b611cf68185611c8c565b9350611d06818560208601611c9d565b611d0f81611cd0565b840191505092915050565b60006020820190508181036000830152611d348184611ce1565b905092915050565b611d4581611abb565b82525050565b6000608082019050611d606000830187611b6f565b611d6d6020830186611d3c565b8181036040830152611d7f8185611ce1565b9050611d8e6060830184611b6f565b95945050505050565b600080fd5b7f4e487b7100000000000000000000000000000000000000000000000000000000600052604160045260246000fd5b611dd482611cd0565b810181811067ffffffffffffffff82111715611df357611df2611d9c565b5b80604052505050565b6000611e06611a87565b9050611e128282611dcb565b919050565b600067ffffffffffffffff821115611e3257611e31611d9c565b5b602082029050602081019050919050565b600080fd5b6000611e5b611e5684611e17565b611dfc565b90508083825260208201905060208402830185811115611e7e57611e7d611e43565b5b835b81811015611ea75780611e938882611b1a565b845260208401935050602081019050611e80565b5050509392505050565b600082601f830112611ec657611ec5611d97565b5b8135611ed6848260208601611e48565b91505092915050565b600080fd5b600067ffffffffffffffff821115611eff57611efe611d9c565b5b611f0882611cd0565b9050602081019050919050565b82818337600083830152505050565b6000611f37611f3284611ee4565b611dfc565b905082815260208101848484011115611f5357611f52611edf565b5b611f5e848285611f15565b509392505050565b600082601f830112611f7b57611f7a611d97565b5b8135611f8b848260208601611f24565b91505092915050565b600080600080600060a08688031215611fb057611faf611a91565b5b6000611fbe88828901611ae4565b9550506020611fcf88828901611ae4565b945050604086013567ffffffffffffffff811115611ff057611fef611a96565b5b611ffc88828901611eb1565b935050606086013567ffffffffffffffff81111561201d5761201c611a96565b5b61202988828901611eb1565b925050608086013567ffffffffffffffff81111561204a57612049611a96565b5b61205688828901611f66565b9150509295509295909350565b600067ffffffffffffffff82111561207e5761207d611d9c565b5b602082029050602081019050919050565b60006120a261209d84612063565b611dfc565b905080838252602082019050602084028301858111156120c5576120c4611e43565b5b835b818110156120ee57806120da8882611ae4565b8452602084019350506020810190506120c7565b5050509392505050565b600082601f83011261210d5761210c611d97565b5b813561211d84826020860161208f565b91505092915050565b6000806040838503121561213d5761213c611a91565b5b600083013567ffffffffffffffff81111561215b5761215a611a96565b5b612167858286016120f8565b925050602083013567ffffffffffffffff81111561218857612187611a96565b5b61219485828601611eb1565b9150509250929050565b600081519050919050565b600082825260208201905092915050565b6000819050602082019050919050565b6121d381611af9565b82525050565b60006121e583836121ca565b60208301905092915050565b6000602082019050919050565b60006122098261219e565b61221381856121a9565b935061221e836121ba565b8060005b8381101561224f57815161223688826121d9565b9750612241836121f1565b925050600181019050612222565b5085935050505092915050565b6000602082019050818103600083015261227681846121fe565b905092915050565b61228781611c1e565b811461229257600080fd5b50565b6000813590506122a48161227e565b92915050565b600080604083850312156122c1576122c0611a91565b5b60006122cf85828601611ae4565b92505060206122e085828601612295565b9150509250929050565b6000806040838503121561230157612300611a91565b5b600061230f85828601611ae4565b925050602061232085828601611ae4565b9150509250929050565b600080fd5b60008083601f84011261234557612344611d97565b5b8235905067ffffffffffffffff8111156123625761236161232a565b5b60208301915083600182028301111561237e5761237d611e43565b5b9250929050565b6000806000806060858703121561239f5761239e611a91565b5b60006123ad87828801611b1a565b945050602085013567ffffffffffffffff8111156123ce576123cd611a96565b5b6123da8782880161232f565b935093505060406123ed87828801611b1a565b91505092959194509250565b600080600080600060a0868803121561241557612414611a91565b5b600061242388828901611ae4565b955050602061243488828901611ae4565b945050604061244588828901611b1a565b935050606061245688828901611b1a565b925050608086013567ffffffffffffffff81111561247757612476611a96565b5b61248388828901611f66565b9150509295509295909350565b7f455243313135353a2061646472657373207a65726f206973206e6f742061207660008201527f616c6964206f776e657200000000000000000000000000000000000000000000602082015250565b60006124ec602a83611c8c565b91506124f782612490565b604082019050919050565b6000602082019050818103600083015261251b816124df565b9050919050565b7f4e487b7100000000000000000000000000000000000000000000000000000000600052602260045260246000fd5b6000600282049050600182168061256957607f821691505b6020821081141561257d5761257c612522565b5b50919050565b7f455243313135353a2063616c6c6572206973206e6f7420746f6b656e206f776e60008201527f6572206e6f7220617070726f7665640000000000000000000000000000000000602082015250565b60006125df602f83611c8c565b91506125ea82612583565b604082019050919050565b6000602082019050818103600083015261260e816125d2565b9050919050565b7f455243313135353a206163636f756e747320616e6420696473206c656e67746860008201527f206d69736d617463680000000000000000000000000000000000000000000000602082015250565b6000612671602983611c8c565b915061267c82612615565b604082019050919050565b600060208201905081810360008301526126a081612664565b9050919050565b7f4e487b7100000000000000000000000000000000000000000000000000000000600052603260045260246000fd5b7f4e487b7100000000000000000000000000000000000000000000000000000000600052601160045260246000fd5b600061271082611af9565b91507fffffffffffffffffffffffffffffffffffffffffffffffffffffffffffffffff821415612743576127426126d6565b5b600182019050919050565b7f57524f4e4720414d4f554e542050414944000000000000000000000000000000600082015250565b6000612784601183611c8c565b915061278f8261274e565b602082019050919050565b600060208201905081810360008301526127b381612777565b9050919050565b60006040820190506127cf6000830185611b6f565b6127dc6020830184611d3c565b9392505050565b7f544f4b454e20494420414c524541445920494e20555345000000000000000000600082015250565b6000612819601783611c8c565b9150612824826127e3565b602082019050919050565b600060208201905081810360008301526128488161280c565b9050919050565b600061285b8385611c8c565b9350612868838584611f15565b61287183611cd0565b840190509392505050565b60006080820190506128916000830188611b6f565b61289e6020830187611d3c565b81810360408301526128b181858761284f565b90506128c06060830184611b6f565b9695505050505050565b7f455243313135353a2069647320616e6420616d6f756e7473206c656e6774682060008201527f6d69736d61746368000000000000000000000000000000000000000000000000602082015250565b6000612926602883611c8c565b9150612931826128ca565b604082019050919050565b6000602082019050818103600083015261295581612919565b9050919050565b7f455243313135353a207472616e7366657220746f20746865207a65726f20616460008201527f6472657373000000000000000000000000000000000000000000000000000000602082015250565b60006129b8602583611c8c565b91506129c38261295c565b604082019050919050565b600060208201905081810360008301526129e7816129ab565b9050919050565b7f455243313135353a20696e73756666696369656e742062616c616e636520666f60008201527f72207472616e7366657200000000000000000000000000000000000000000000602082015250565b6000612a4a602a83611c8c565b9150612a55826129ee565b604082019050919050565b60006020820190508181036000830152612a7981612a3d565b9050919050565b6000612a8b82611af9565b9150612a9683611af9565b9250827fffffffffffffffffffffffffffffffffffffffffffffffffffffffffffffffff03821115612acb57612aca6126d6565b5b828201905092915050565b60006040820190508181036000830152612af081856121fe565b90508181036020830152612b0481846121fe565b90509392505050565b6000604082019050612b226000830185611b6f565b612b2f6020830184611b6f565b9392505050565b7f455243313135353a2073657474696e6720617070726f76616c2073746174757360008201527f20666f722073656c660000000000000000000000000000000000000000000000602082015250565b6000612b92602983611c8c565b9150612b9d82612b36565b604082019050919050565b60006020820190508181036000830152612bc181612b85565b9050919050565b7f455243313135353a206d696e7420746f20746865207a65726f2061646472657360008201527f7300000000000000000000000000000000000000000000000000000000000000602082015250565b6000612c24602183611c8c565b9150612c2f82612bc8565b604082019050919050565b60006020820190508181036000830152612c5381612c17565b9050919050565b600081519050919050565b600082825260208201905092915050565b6000612c8182612c5a565b612c8b8185612c65565b9350612c9b818560208601611c9d565b612ca481611cd0565b840191505092915050565b600060a082019050612cc46000830188611d3c565b612cd16020830187611d3c565b8181036040830152612ce381866121fe565b90508181036060830152612cf781856121fe565b90508181036080830152612d0b8184612c76565b90509695505050505050565b600081519050612d2681611bc5565b92915050565b600060208284031215612d4257612d41611a91565b5b6000612d5084828501612d17565b91505092915050565b60008160e01c9050919050565b600060033d1115612d855760046000803e612d82600051612d59565b90505b90565b600060443d1015612d9857612e1b565b612da0611a87565b60043d036004823e80513d602482011167ffffffffffffffff82111715612dc8575050612e1b565b808201805167ffffffffffffffff811115612de65750505050612e1b565b80602083010160043d038501811115612e03575050505050612e1b565b612e1282602001850186611dcb565b82955050505050505b90565b7f455243313135353a207472616e7366657220746f206e6f6e204552433131353560008201527f526563656976657220696d706c656d656e746572000000000000000000000000602082015250565b6000612e7a603483611c8c565b9150612e8582612e1e565b604082019050919050565b60006020820190508181036000830152612ea981612e6d565b9050919050565b7f455243313135353a204552433131353552656365697665722072656a6563746560008201527f6420746f6b656e73000000000000000000000000000000000000000000000000602082015250565b6000612f0c602883611c8c565b9150612f1782612eb0565b604082019050919050565b60006020820190508181036000830152612f3b81612eff565b9050919050565b600060a082019050612f576000830188611d3c565b612f646020830187611d3c565b612f716040830186611b6f565b612f7e6060830185611b6f565b8181036080830152612f908184612c76565b9050969550505050505056fea264697066735822122018fa5f9cde2dff16bda2ecec4d3a5c67cdd60a972e2aa39a0301ad4ff85d9f3e64736f6c63430008090033",
  "linkReferences": {},
  "deployedLinkReferences": {}
}